{
  "contractName": "SpeakItOut",
  "abi": [
    {
      "constant": true,
      "inputs": [
        {
          "name": "",
          "type": "address"
        }
      ],
      "name": "profiles",
      "outputs": [
        {
          "name": "firstName",
          "type": "string"
        },
        {
          "name": "lastName",
          "type": "string"
        }
      ],
      "payable": false,
      "stateMutability": "view",
      "type": "function",
      "signature": "0xbbe15627"
    },
    {
      "inputs": [],
      "payable": false,
      "stateMutability": "nonpayable",
      "type": "constructor",
      "signature": "constructor"
    },
    {
      "constant": false,
      "inputs": [
        {
          "name": "firstName",
          "type": "string"
        },
        {
          "name": "lastName",
          "type": "string"
        }
      ],
      "name": "addAccount",
      "outputs": [],
      "payable": false,
      "stateMutability": "nonpayable",
      "type": "function",
      "signature": "0x4479a70f"
    },
    {
      "constant": false,
      "inputs": [
        {
          "name": "firstName",
          "type": "string"
        },
        {
          "name": "lastName",
          "type": "string"
        }
      ],
      "name": "editAccount",
      "outputs": [],
      "payable": false,
      "stateMutability": "nonpayable",
      "type": "function",
      "signature": "0xb9fc63d5"
    },
    {
      "constant": true,
      "inputs": [],
      "name": "getCount",
      "outputs": [
        {
          "name": "",
          "type": "uint256"
        }
      ],
      "payable": false,
      "stateMutability": "view",
      "type": "function",
      "signature": "0xa87d942c"
    }
  ],
  "bytecode": "0x608060405234801561001057600080fd5b50610821806100206000396000f3fe608060405260043610610062576000357c0100000000000000000000000000000000000000000000000000000000900463ffffffff1680634479a70f14610067578063a87d942c146101c6578063b9fc63d5146101f1578063bbe1562714610350575b600080fd5b34801561007357600080fd5b506101c46004803603604081101561008a57600080fd5b81019080803590602001906401000000008111156100a757600080fd5b8201836020820111156100b957600080fd5b803590602001918460018302840111640100000000831117156100db57600080fd5b91908080601f016020809104026020016040519081016040528093929190818152602001838380828437600081840152601f19601f8201169050808301925050505050505091929192908035906020019064010000000081111561013e57600080fd5b82018360208201111561015057600080fd5b8035906020019184600183028401116401000000008311171561017257600080fd5b91908080601f016020809104026020016040519081016040528093929190818152602001838380828437600081840152601f19601f820116905080830192505050505050509192919290505050610486565b005b3480156101d257600080fd5b506101db610538565b6040518082815260200191505060405180910390f35b3480156101fd57600080fd5b5061034e6004803603604081101561021457600080fd5b810190808035906020019064010000000081111561023157600080fd5b82018360208201111561024357600080fd5b8035906020019184600183028401116401000000008311171561026557600080fd5b91908080601f016020809104026020016040519081016040528093929190818152602001838380828437600081840152601f19601f820116905080830192505050505050509192919290803590602001906401000000008111156102c857600080fd5b8201836020820111156102da57600080fd5b803590602001918460018302840111640100000000831117156102fc57600080fd5b91908080601f016020809104026020016040519081016040528093929190818152602001838380828437600081840152601f19601f820116905080830192505050505050509192919290505050610542565b005b34801561035c57600080fd5b5061039f6004803603602081101561037357600080fd5b81019080803573ffffffffffffffffffffffffffffffffffffffff1690602001909291905050506105e2565b604051808060200180602001838103835285818151815260200191508051906020019080838360005b838110156103e35780820151818401526020810190506103c8565b50505050905090810190601f1680156104105780820380516001836020036101000a031916815260200191505b50838103825284818151815260200191508051906020019080838360005b8381101561044957808201518184015260208101905061042e565b50505050905090810190601f1680156104765780820380516001836020036101000a031916815260200191505b5094505050505060405180910390f35b61048e610736565b6040805190810160405280848152602001838152509050806000803373ffffffffffffffffffffffffffffffffffffffff1673ffffffffffffffffffffffffffffffffffffffff1681526020019081526020016000206000820151816000019080519060200190610500929190610750565b50602082015181600101908051906020019061051d929190610750565b50905050600160008154809291906001019190505550505050565b6000600154905090565b61054a610736565b6040805190810160405280848152602001838152509050806000803373ffffffffffffffffffffffffffffffffffffffff1673ffffffffffffffffffffffffffffffffffffffff16815260200190815260200160002060008201518160000190805190602001906105bc929190610750565b5060208201518160010190805190602001906105d9929190610750565b50905050505050565b6000602052806000526040600020600091509050806000018054600181600116156101000203166002900480601f01602080910402602001604051908101604052809291908181526020018280546001816001161561010002031660029004801561068e5780601f106106635761010080835404028352916020019161068e565b820191906000526020600020905b81548152906001019060200180831161067157829003601f168201915b505050505090806001018054600181600116156101000203166002900480601f01602080910402602001604051908101604052809291908181526020018280546001816001161561010002031660029004801561072c5780601f106107015761010080835404028352916020019161072c565b820191906000526020600020905b81548152906001019060200180831161070f57829003601f168201915b5050505050905082565b604080519081016040528060608152602001606081525090565b828054600181600116156101000203166002900490600052602060002090601f016020900481019282601f1061079157805160ff19168380011785556107bf565b828001600101855582156107bf579182015b828111156107be5782518255916020019190600101906107a3565b5b5090506107cc91906107d0565b5090565b6107f291905b808211156107ee5760008160009055506001016107d6565b5090565b9056fea165627a7a72305820bff2d9a5847f7b826eea27d0cf2e4fca71f14005f8063c9cc3e8e07fd5e3af9c0029",
  "source": "pragma solidity ^0.5.0;\n\ncontract SpeakItOut {\n    struct ProfileDetails {\n        string firstName;\n        string lastName;\n    }\n\n    struct Blog {\n        string title;\n        string data;\n        // List of users that upvoted\n        string upvotes;\n        // User that upvoted the blog\n        address[] users;         \n    }\n\n    mapping(address => ProfileDetails) public profiles;\n\n    uint count;\n    constructor() public{\n\n    }\n\n    //Add a new Account\n    function addAccount(string memory firstName, string memory lastName) public{\n        //Check if account already exists\n        ProfileDetails memory profileDetails = ProfileDetails(firstName,lastName);\n        profiles[msg.sender] = profileDetails;\n        count++;\n    }\n\n    //Edit an Existing account\n    function editAccount(string memory firstName, string memory lastName) public{\n        //Check if account exists\n        ProfileDetails memory profileDetails = ProfileDetails(firstName,lastName);\n        profiles[msg.sender] = profileDetails;\n    }\n\n    function getCount() public view returns(uint){\n      return count;\n    }\n}\n",
  "sourcePath": "F:/Courses/Blockchain/Git/speakitout/contracts/SpeakItOut.sol",
  "compiler": {
    "name": "solc",
    "version": "0.5.0+commit.1d4f565a.Emscripten.clang"
  },
  "schemaVersion": "3.0.6",
  "updatedAt": "2019-04-10T15:55:00.753Z",
  "devdoc": {
    "methods": {}
  },
  "userdoc": {
    "methods": {}
  }
}