{
  "contractName": "SpeakItOut",
  "abi": [
    {
      "constant": true,
      "inputs": [],
      "name": "count",
      "outputs": [
        {
          "name": "",
          "type": "uint256"
        }
      ],
      "payable": false,
      "stateMutability": "view",
      "type": "function",
      "signature": "0x06661abd"
    },
    {
      "constant": true,
      "inputs": [
        {
          "name": "",
          "type": "address"
        }
      ],
      "name": "members",
      "outputs": [
        {
          "name": "publicKeyLeft",
          "type": "bytes32"
        },
        {
          "name": "publicKeyRight",
          "type": "bytes32"
        },
        {
          "name": "name",
          "type": "bytes32"
        },
        {
          "name": "avatarUrl",
          "type": "bytes32"
        },
        {
          "name": "messageStartBlock",
          "type": "uint256"
        },
        {
          "name": "isMember",
          "type": "bool"
        }
      ],
      "payable": false,
      "stateMutability": "view",
      "type": "function",
      "signature": "0x08ae4b0c"
    },
    {
      "constant": true,
      "inputs": [
        {
          "name": "",
          "type": "uint256"
        }
      ],
      "name": "blogs",
      "outputs": [
        {
          "name": "title",
          "type": "string"
        },
        {
          "name": "data",
          "type": "string"
        },
        {
          "name": "upvotes",
          "type": "uint256"
        },
        {
          "name": "author",
          "type": "address"
        }
      ],
      "payable": false,
      "stateMutability": "view",
      "type": "function",
      "signature": "0x80f052d8"
    },
    {
      "constant": true,
      "inputs": [
        {
          "name": "",
          "type": "address"
        }
      ],
      "name": "profiles",
      "outputs": [
        {
          "name": "firstName",
          "type": "string"
        },
        {
          "name": "lastName",
          "type": "string"
        }
      ],
      "payable": false,
      "stateMutability": "view",
      "type": "function",
      "signature": "0xbbe15627"
    },
    {
      "inputs": [],
      "payable": false,
      "stateMutability": "nonpayable",
      "type": "constructor",
      "signature": "constructor"
    },
    {
      "anonymous": false,
      "inputs": [
        {
          "indexed": true,
          "name": "from",
          "type": "address"
        },
        {
          "indexed": true,
          "name": "to",
          "type": "address"
        },
        {
          "indexed": false,
          "name": "message",
          "type": "string"
        },
        {
          "indexed": false,
          "name": "encryption",
          "type": "bytes32"
        }
      ],
      "name": "messageSentEvent",
      "type": "event",
      "signature": "0x660f273649182128da2c3f965c4d79643bf4d5fa39aa030980142b4d913fdea3"
    },
    {
      "anonymous": false,
      "inputs": [
        {
          "indexed": true,
          "name": "from",
          "type": "address"
        },
        {
          "indexed": true,
          "name": "to",
          "type": "address"
        }
      ],
      "name": "addContactEvent",
      "type": "event",
      "signature": "0x2e79a42d9626443e3bf4e774b989fe2179b483f037cbfc7e7ea48fa29b8f5267"
    },
    {
      "anonymous": false,
      "inputs": [
        {
          "indexed": true,
          "name": "from",
          "type": "address"
        },
        {
          "indexed": true,
          "name": "to",
          "type": "address"
        }
      ],
      "name": "acceptContactEvent",
      "type": "event",
      "signature": "0x47a21261971f27f6b8f9d4544c161e5460ea140246e78c519e951b39a877f388"
    },
    {
      "anonymous": false,
      "inputs": [
        {
          "indexed": true,
          "name": "from",
          "type": "address"
        },
        {
          "indexed": false,
          "name": "name",
          "type": "bytes32"
        }
      ],
      "name": "profileUpdateEvent",
      "type": "event",
      "signature": "0xe02abff9bdf4706b71af2da12eded01fef1aa450ec01b7d14397fff4c45aca31"
    },
    {
      "anonymous": false,
      "inputs": [
        {
          "indexed": true,
          "name": "from",
          "type": "address"
        },
        {
          "indexed": true,
          "name": "to",
          "type": "address"
        }
      ],
      "name": "blockContactEvent",
      "type": "event",
      "signature": "0x94a60cbe32dccf41af4ceafb3df23a95e3a69d5785b4ac14069c3357ea3349e7"
    },
    {
      "anonymous": false,
      "inputs": [
        {
          "indexed": true,
          "name": "from",
          "type": "address"
        },
        {
          "indexed": true,
          "name": "to",
          "type": "address"
        }
      ],
      "name": "unblockContactEvent",
      "type": "event",
      "signature": "0xc9604c75d678df930c19bfd4d59e4405c566d233922fb2f3e1f6904f66df5350"
    },
    {
      "constant": false,
      "inputs": [
        {
          "name": "firstName",
          "type": "string"
        },
        {
          "name": "lastName",
          "type": "string"
        }
      ],
      "name": "addAccount",
      "outputs": [],
      "payable": false,
      "stateMutability": "nonpayable",
      "type": "function",
      "signature": "0x4479a70f"
    },
    {
      "constant": false,
      "inputs": [
        {
          "name": "firstName",
          "type": "string"
        },
        {
          "name": "lastName",
          "type": "string"
        }
      ],
      "name": "editAccount",
      "outputs": [],
      "payable": false,
      "stateMutability": "nonpayable",
      "type": "function",
      "signature": "0xb9fc63d5"
    },
    {
      "constant": true,
      "inputs": [],
      "name": "getCount",
      "outputs": [
        {
          "name": "",
          "type": "uint256"
        }
      ],
      "payable": false,
      "stateMutability": "view",
      "type": "function",
      "signature": "0xa87d942c"
    },
    {
      "constant": false,
      "inputs": [
        {
          "name": "title",
          "type": "string"
        },
        {
          "name": "data",
          "type": "string"
        }
      ],
      "name": "addBlog",
      "outputs": [],
      "payable": false,
      "stateMutability": "nonpayable",
      "type": "function",
      "signature": "0xebbca87a"
    },
    {
      "constant": true,
      "inputs": [],
      "name": "getBlogCount",
      "outputs": [
        {
          "name": "",
          "type": "uint256"
        }
      ],
      "payable": false,
      "stateMutability": "view",
      "type": "function",
      "signature": "0xc8b71c95"
    },
    {
      "constant": false,
      "inputs": [
        {
          "name": "addr",
          "type": "address"
        }
      ],
      "name": "addContact",
      "outputs": [],
      "payable": false,
      "stateMutability": "nonpayable",
      "type": "function",
      "signature": "0xa414b379"
    },
    {
      "constant": false,
      "inputs": [
        {
          "name": "addr",
          "type": "address"
        }
      ],
      "name": "acceptContactRequest",
      "outputs": [],
      "payable": false,
      "stateMutability": "nonpayable",
      "type": "function",
      "signature": "0x6fbd6f6b"
    },
    {
      "constant": false,
      "inputs": [
        {
          "name": "publicKeyLeft",
          "type": "bytes32"
        },
        {
          "name": "publicKeyRight",
          "type": "bytes32"
        }
      ],
      "name": "join",
      "outputs": [],
      "payable": false,
      "stateMutability": "nonpayable",
      "type": "function",
      "signature": "0x5b419a65"
    },
    {
      "constant": false,
      "inputs": [
        {
          "name": "to",
          "type": "address"
        },
        {
          "name": "message",
          "type": "string"
        },
        {
          "name": "encryption",
          "type": "bytes32"
        }
      ],
      "name": "sendMessage",
      "outputs": [],
      "payable": false,
      "stateMutability": "nonpayable",
      "type": "function",
      "signature": "0x64ee3588"
    },
    {
      "constant": false,
      "inputs": [
        {
          "name": "from",
          "type": "address"
        }
      ],
      "name": "blockMessagesFrom",
      "outputs": [],
      "payable": false,
      "stateMutability": "nonpayable",
      "type": "function",
      "signature": "0x0a5dc5a9"
    },
    {
      "constant": false,
      "inputs": [
        {
          "name": "from",
          "type": "address"
        }
      ],
      "name": "unblockMessagesFrom",
      "outputs": [],
      "payable": false,
      "stateMutability": "nonpayable",
      "type": "function",
      "signature": "0xa8e70dd3"
    },
    {
      "constant": false,
      "inputs": [
        {
          "name": "name",
          "type": "bytes32"
        }
      ],
      "name": "updateProfile",
      "outputs": [],
      "payable": false,
      "stateMutability": "nonpayable",
      "type": "function",
      "signature": "0xbf7746b8"
    },
    {
      "constant": true,
      "inputs": [
        {
          "name": "a",
          "type": "address"
        }
      ],
      "name": "getRelationWith",
      "outputs": [
        {
          "name": "",
          "type": "uint8"
        }
      ],
      "payable": false,
      "stateMutability": "view",
      "type": "function",
      "signature": "0x661b9065"
    },
    {
      "constant": false,
      "inputs": [],
      "name": "deleteProfile",
      "outputs": [],
      "payable": false,
      "stateMutability": "nonpayable",
      "type": "function",
      "signature": "0x6d4540eb"
    }
  ],
  "bytecode": "0x608060405234801561001057600080fd5b50612468806100206000396000f3fe6080604052600436106100fc576000357c0100000000000000000000000000000000000000000000000000000000900463ffffffff16806306661abd1461010157806308ae4b0c1461012c5780630a5dc5a9146101b85780634479a70f146102095780635b419a651461036857806364ee3588146103ad578063661b90651461049f5780636d4540eb146105125780636fbd6f6b1461052957806380f052d81461057a578063a414b379146106d4578063a87d942c14610725578063a8e70dd314610750578063b9fc63d5146107a1578063bbe1562714610900578063bf7746b814610a36578063c8b71c9514610a71578063ebbca87a14610a9c575b600080fd5b34801561010d57600080fd5b50610116610bfb565b6040518082815260200191505060405180910390f35b34801561013857600080fd5b5061017b6004803603602081101561014f57600080fd5b81019080803573ffffffffffffffffffffffffffffffffffffffff169060200190929190505050610c01565b6040518087815260200186815260200185815260200184815260200183815260200182151515158152602001965050505050505060405180910390f35b3480156101c457600080fd5b50610207600480360360208110156101db57600080fd5b81019080803573ffffffffffffffffffffffffffffffffffffffff169060200190929190505050610c4a565b005b34801561021557600080fd5b506103666004803603604081101561022c57600080fd5b810190808035906020019064010000000081111561024957600080fd5b82018360208201111561025b57600080fd5b8035906020019184600183028401116401000000008311171561027d57600080fd5b91908080601f016020809104026020016040519081016040528093929190818152602001838380828437600081840152601f19601f820116905080830192505050505050509192919290803590602001906401000000008111156102e057600080fd5b8201836020820111156102f257600080fd5b8035906020019184600183028401116401000000008311171561031457600080fd5b91908080601f016020809104026020016040519081016040528093929190818152602001838380828437600081840152601f19601f820116905080830192505050505050509192919290505050610e54565b005b34801561037457600080fd5b506103ab6004803603604081101561038b57600080fd5b810190808035906020019092919080359060200190929190505050610f06565b005b3480156103b957600080fd5b5061049d600480360360608110156103d057600080fd5b81019080803573ffffffffffffffffffffffffffffffffffffffff1690602001909291908035906020019064010000000081111561040d57600080fd5b82018360208201111561041f57600080fd5b8035906020019184600183028401116401000000008311171561044157600080fd5b91908080601f016020809104026020016040519081016040528093929190818152602001838380828437600081840152601f19601f82011690508083019250505050505050919291929080359060200190929190505050611046565b005b3480156104ab57600080fd5b506104ee600480360360208110156104c257600080fd5b81019080803573ffffffffffffffffffffffffffffffffffffffff169060200190929190505050611324565b604051808260038111156104fe57fe5b60ff16815260200191505060405180910390f35b34801561051e57600080fd5b50610527611419565b005b34801561053557600080fd5b506105786004803603602081101561054c57600080fd5b81019080803573ffffffffffffffffffffffffffffffffffffffff1690602001909291905050506114fb565b005b34801561058657600080fd5b506105b36004803603602081101561059d57600080fd5b81019080803590602001909291905050506117a4565b6040518080602001806020018581526020018473ffffffffffffffffffffffffffffffffffffffff1673ffffffffffffffffffffffffffffffffffffffff168152602001838103835287818151815260200191508051906020019080838360005b8381101561062f578082015181840152602081019050610614565b50505050905090810190601f16801561065c5780820380516001836020036101000a031916815260200191505b50838103825286818151815260200191508051906020019080838360005b8381101561069557808201518184015260208101905061067a565b50505050905090810190601f1680156106c25780820380516001836020036101000a031916815260200191505b50965050505050505060405180910390f35b3480156106e057600080fd5b50610723600480360360208110156106f757600080fd5b81019080803573ffffffffffffffffffffffffffffffffffffffff169060200190929190505050611933565b005b34801561073157600080fd5b5061073a611bec565b6040518082815260200191505060405180910390f35b34801561075c57600080fd5b5061079f6004803603602081101561077357600080fd5b81019080803573ffffffffffffffffffffffffffffffffffffffff169060200190929190505050611bf6565b005b3480156107ad57600080fd5b506108fe600480360360408110156107c457600080fd5b81019080803590602001906401000000008111156107e157600080fd5b8201836020820111156107f357600080fd5b8035906020019184600183028401116401000000008311171561081557600080fd5b91908080601f016020809104026020016040519081016040528093929190818152602001838380828437600081840152601f19601f8201169050808301925050505050505091929192908035906020019064010000000081111561087857600080fd5b82018360208201111561088a57600080fd5b803590602001918460018302840111640100000000831117156108ac57600080fd5b91908080601f016020809104026020016040519081016040528093929190818152602001838380828437600081840152601f19601f820116905080830192505050505050509192919290505050611e00565b005b34801561090c57600080fd5b5061094f6004803603602081101561092357600080fd5b81019080803573ffffffffffffffffffffffffffffffffffffffff169060200190929190505050611ea0565b604051808060200180602001838103835285818151815260200191508051906020019080838360005b83811015610993578082015181840152602081019050610978565b50505050905090810190601f1680156109c05780820380516001836020036101000a031916815260200191505b50838103825284818151815260200191508051906020019080838360005b838110156109f95780820151818401526020810190506109de565b50505050905090810190601f168015610a265780820380516001836020036101000a031916815260200191505b5094505050505060405180910390f35b348015610a4257600080fd5b50610a6f60048036036020811015610a5957600080fd5b8101908080359060200190929190505050611ff4565b005b348015610a7d57600080fd5b50610a866120ee565b6040518082815260200191505060405180910390f35b348015610aa857600080fd5b50610bf960048036036040811015610abf57600080fd5b8101908080359060200190640100000000811115610adc57600080fd5b820183602082011115610aee57600080fd5b80359060200191846001830284011164010000000083111715610b1057600080fd5b91908080601f016020809104026020016040519081016040528093929190818152602001838380828437600081840152601f19601f82011690508083019250505050505050919291929080359060200190640100000000811115610b7357600080fd5b820183602082011115610b8557600080fd5b80359060200191846001830284011164010000000083111715610ba757600080fd5b91908080601f016020809104026020016040519081016040528093929190818152602001838380828437600081840152601f19601f8201169050808301925050505050505091929192905050506120fb565b005b60025481565b60046020528060005260406000206000915090508060000154908060010154908060020154908060030154908060040154908060050160009054906101000a900460ff16905086565b60011515600460003373ffffffffffffffffffffffffffffffffffffffff1673ffffffffffffffffffffffffffffffffffffffff16815260200190815260200160002060050160009054906101000a900460ff161515141515610cac57600080fd5b60026003811115610cb957fe5b600360003373ffffffffffffffffffffffffffffffffffffffff1673ffffffffffffffffffffffffffffffffffffffff16815260200190815260200160002060008373ffffffffffffffffffffffffffffffffffffffff1673ffffffffffffffffffffffffffffffffffffffff16815260200190815260200160002060009054906101000a900460ff166003811115610d4e57fe5b141515610d5a57600080fd5b60038060003373ffffffffffffffffffffffffffffffffffffffff1673ffffffffffffffffffffffffffffffffffffffff16815260200190815260200160002060008373ffffffffffffffffffffffffffffffffffffffff1673ffffffffffffffffffffffffffffffffffffffff16815260200190815260200160002060006101000a81548160ff02191690836003811115610df257fe5b02179055508073ffffffffffffffffffffffffffffffffffffffff163373ffffffffffffffffffffffffffffffffffffffff167f94a60cbe32dccf41af4ceafb3df23a95e3a69d5785b4ac14069c3357ea3349e760405160405180910390a350565b610e5c612225565b6040805190810160405280848152602001838152509050806000803373ffffffffffffffffffffffffffffffffffffffff1673ffffffffffffffffffffffffffffffffffffffff1681526020019081526020016000206000820151816000019080519060200190610ece92919061223f565b506020820151816001019080519060200190610eeb92919061223f565b50905050600260008154809291906001019190505550505050565b60001515600460003373ffffffffffffffffffffffffffffffffffffffff1673ffffffffffffffffffffffffffffffffffffffff16815260200190815260200160002060050160009054906101000a900460ff161515141515610f6857600080fd5b610f706122bf565b60c06040519081016040528084815260200183815260200160008019168152602001600080191681526020016000815260200160011515815250905080600460003373ffffffffffffffffffffffffffffffffffffffff1673ffffffffffffffffffffffffffffffffffffffff168152602001908152602001600020600082015181600001556020820151816001015560408201518160020155606082015181600301556080820151816004015560a08201518160050160006101000a81548160ff021916908315150217905550905050505050565b60011515600460003373ffffffffffffffffffffffffffffffffffffffff1673ffffffffffffffffffffffffffffffffffffffff16815260200190815260200160002060050160009054906101000a900460ff1615151415156110a857600080fd5b8260011515600460008373ffffffffffffffffffffffffffffffffffffffff1673ffffffffffffffffffffffffffffffffffffffff16815260200190815260200160002060050160009054906101000a900460ff16151514151561110b57600080fd5b6002600381111561111857fe5b600360008673ffffffffffffffffffffffffffffffffffffffff1673ffffffffffffffffffffffffffffffffffffffff16815260200190815260200160002060003373ffffffffffffffffffffffffffffffffffffffff1673ffffffffffffffffffffffffffffffffffffffff16815260200190815260200160002060009054906101000a900460ff1660038111156111ad57fe5b1415156111b957600080fd5b6000600460008673ffffffffffffffffffffffffffffffffffffffff1673ffffffffffffffffffffffffffffffffffffffff16815260200190815260200160002060040154141561124c5743600460008673ffffffffffffffffffffffffffffffffffffffff1673ffffffffffffffffffffffffffffffffffffffff168152602001908152602001600020600401819055505b8373ffffffffffffffffffffffffffffffffffffffff163373ffffffffffffffffffffffffffffffffffffffff167f660f273649182128da2c3f965c4d79643bf4d5fa39aa030980142b4d913fdea385856040518080602001838152602001828103825284818151815260200191508051906020019080838360005b838110156112e35780820151818401526020810190506112c8565b50505050905090810190601f1680156113105780820380516001836020036101000a031916815260200191505b50935050505060405180910390a350505050565b600060011515600460003373ffffffffffffffffffffffffffffffffffffffff1673ffffffffffffffffffffffffffffffffffffffff16815260200190815260200160002060050160009054906101000a900460ff16151514151561138857600080fd5b600360003373ffffffffffffffffffffffffffffffffffffffff1673ffffffffffffffffffffffffffffffffffffffff16815260200190815260200160002060008373ffffffffffffffffffffffffffffffffffffffff1673ffffffffffffffffffffffffffffffffffffffff16815260200190815260200160002060009054906101000a900460ff169050919050565b60011515600460003373ffffffffffffffffffffffffffffffffffffffff1673ffffffffffffffffffffffffffffffffffffffff16815260200190815260200160002060050160009054906101000a900460ff16151514151561147b57600080fd5b600460003373ffffffffffffffffffffffffffffffffffffffff1673ffffffffffffffffffffffffffffffffffffffff16815260200190815260200160002060008082016000905560018201600090556002820160009055600382016000905560048201600090556005820160006101000a81549060ff02191690555050565b60011515600460003373ffffffffffffffffffffffffffffffffffffffff1673ffffffffffffffffffffffffffffffffffffffff16815260200190815260200160002060050160009054906101000a900460ff16151514151561155d57600080fd5b6001600381111561156a57fe5b600360008373ffffffffffffffffffffffffffffffffffffffff1673ffffffffffffffffffffffffffffffffffffffff16815260200190815260200160002060003373ffffffffffffffffffffffffffffffffffffffff1673ffffffffffffffffffffffffffffffffffffffff16815260200190815260200160002060009054906101000a900460ff1660038111156115ff57fe5b14151561160b57600080fd5b6002600360003373ffffffffffffffffffffffffffffffffffffffff1673ffffffffffffffffffffffffffffffffffffffff16815260200190815260200160002060008373ffffffffffffffffffffffffffffffffffffffff1673ffffffffffffffffffffffffffffffffffffffff16815260200190815260200160002060006101000a81548160ff021916908360038111156116a457fe5b02179055506002600360008373ffffffffffffffffffffffffffffffffffffffff1673ffffffffffffffffffffffffffffffffffffffff16815260200190815260200160002060003373ffffffffffffffffffffffffffffffffffffffff1673ffffffffffffffffffffffffffffffffffffffff16815260200190815260200160002060006101000a81548160ff0219169083600381111561174257fe5b02179055508073ffffffffffffffffffffffffffffffffffffffff163373ffffffffffffffffffffffffffffffffffffffff167f47a21261971f27f6b8f9d4544c161e5460ea140246e78c519e951b39a877f38860405160405180910390a350565b6001818154811015156117b357fe5b9060005260206000209060050201600091509050806000018054600181600116156101000203166002900480601f01602080910402602001604051908101604052809291908181526020018280546001816001161561010002031660029004801561185f5780601f106118345761010080835404028352916020019161185f565b820191906000526020600020905b81548152906001019060200180831161184257829003601f168201915b505050505090806001018054600181600116156101000203166002900480601f0160208091040260200160405190810160405280929190818152602001828054600181600116156101000203166002900480156118fd5780601f106118d2576101008083540402835291602001916118fd565b820191906000526020600020905b8154815290600101906020018083116118e057829003601f168201915b5050505050908060020154908060040160009054906101000a900473ffffffffffffffffffffffffffffffffffffffff16905084565b60011515600460003373ffffffffffffffffffffffffffffffffffffffff1673ffffffffffffffffffffffffffffffffffffffff16815260200190815260200160002060050160009054906101000a900460ff16151514151561199557600080fd5b600060038111156119a257fe5b600360003373ffffffffffffffffffffffffffffffffffffffff1673ffffffffffffffffffffffffffffffffffffffff16815260200190815260200160002060008373ffffffffffffffffffffffffffffffffffffffff1673ffffffffffffffffffffffffffffffffffffffff16815260200190815260200160002060009054906101000a900460ff166003811115611a3757fe5b141515611a4357600080fd5b60006003811115611a5057fe5b600360008373ffffffffffffffffffffffffffffffffffffffff1673ffffffffffffffffffffffffffffffffffffffff16815260200190815260200160002060003373ffffffffffffffffffffffffffffffffffffffff1673ffffffffffffffffffffffffffffffffffffffff16815260200190815260200160002060009054906101000a900460ff166003811115611ae557fe5b141515611af157600080fd5b6001600360003373ffffffffffffffffffffffffffffffffffffffff1673ffffffffffffffffffffffffffffffffffffffff16815260200190815260200160002060008373ffffffffffffffffffffffffffffffffffffffff1673ffffffffffffffffffffffffffffffffffffffff16815260200190815260200160002060006101000a81548160ff02191690836003811115611b8a57fe5b02179055508073ffffffffffffffffffffffffffffffffffffffff163373ffffffffffffffffffffffffffffffffffffffff167f2e79a42d9626443e3bf4e774b989fe2179b483f037cbfc7e7ea48fa29b8f526760405160405180910390a350565b6000600254905090565b60011515600460003373ffffffffffffffffffffffffffffffffffffffff1673ffffffffffffffffffffffffffffffffffffffff16815260200190815260200160002060050160009054906101000a900460ff161515141515611c5857600080fd5b600380811115611c6457fe5b600360003373ffffffffffffffffffffffffffffffffffffffff1673ffffffffffffffffffffffffffffffffffffffff16815260200190815260200160002060008373ffffffffffffffffffffffffffffffffffffffff1673ffffffffffffffffffffffffffffffffffffffff16815260200190815260200160002060009054906101000a900460ff166003811115611cf957fe5b141515611d0557600080fd5b6002600360003373ffffffffffffffffffffffffffffffffffffffff1673ffffffffffffffffffffffffffffffffffffffff16815260200190815260200160002060008373ffffffffffffffffffffffffffffffffffffffff1673ffffffffffffffffffffffffffffffffffffffff16815260200190815260200160002060006101000a81548160ff02191690836003811115611d9e57fe5b02179055508073ffffffffffffffffffffffffffffffffffffffff163373ffffffffffffffffffffffffffffffffffffffff167fc9604c75d678df930c19bfd4d59e4405c566d233922fb2f3e1f6904f66df535060405160405180910390a350565b611e08612225565b6040805190810160405280848152602001838152509050806000803373ffffffffffffffffffffffffffffffffffffffff1673ffffffffffffffffffffffffffffffffffffffff1681526020019081526020016000206000820151816000019080519060200190611e7a92919061223f565b506020820151816001019080519060200190611e9792919061223f565b50905050505050565b6000602052806000526040600020600091509050806000018054600181600116156101000203166002900480601f016020809104026020016040519081016040528092919081815260200182805460018160011615610100020316600290048015611f4c5780601f10611f2157610100808354040283529160200191611f4c565b820191906000526020600020905b815481529060010190602001808311611f2f57829003601f168201915b505050505090806001018054600181600116156101000203166002900480601f016020809104026020016040519081016040528092919081815260200182805460018160011615610100020316600290048015611fea5780601f10611fbf57610100808354040283529160200191611fea565b820191906000526020600020905b815481529060010190602001808311611fcd57829003601f168201915b5050505050905082565b60011515600460003373ffffffffffffffffffffffffffffffffffffffff1673ffffffffffffffffffffffffffffffffffffffff16815260200190815260200160002060050160009054906101000a900460ff16151514151561205657600080fd5b80600460003373ffffffffffffffffffffffffffffffffffffffff1673ffffffffffffffffffffffffffffffffffffffff168152602001908152602001600020600201819055503373ffffffffffffffffffffffffffffffffffffffff167fe02abff9bdf4706b71af2da12eded01fef1aa450ec01b7d14397fff4c45aca31826040518082815260200191505060405180910390a250565b6000600180549050905090565b6060612105612304565b60a060405190810160405280858152602001848152602001600081526020018381526020013373ffffffffffffffffffffffffffffffffffffffff16815250905060018190806001815401808255809150509060018203906000526020600020906005020160009091929091909150600082015181600001908051906020019061219092919061223f565b5060208201518160010190805190602001906121ad92919061223f565b506040820151816002015560608201518160030190805190602001906121d492919061234a565b5060808201518160040160006101000a81548173ffffffffffffffffffffffffffffffffffffffff021916908373ffffffffffffffffffffffffffffffffffffffff16021790555050505050505050565b604080519081016040528060608152602001606081525090565b828054600181600116156101000203166002900490600052602060002090601f016020900481019282601f1061228057805160ff19168380011785556122ae565b828001600101855582156122ae579182015b828111156122ad578251825591602001919060010190612292565b5b5090506122bb91906123d4565b5090565b60c06040519081016040528060008019168152602001600080191681526020016000801916815260200160008019168152602001600081526020016000151581525090565b60a06040519081016040528060608152602001606081526020016000815260200160608152602001600073ffffffffffffffffffffffffffffffffffffffff1681525090565b8280548282559060005260206000209081019282156123c3579160200282015b828111156123c25782518260006101000a81548173ffffffffffffffffffffffffffffffffffffffff021916908373ffffffffffffffffffffffffffffffffffffffff1602179055509160200191906001019061236a565b5b5090506123d091906123f9565b5090565b6123f691905b808211156123f25760008160009055506001016123da565b5090565b90565b61243991905b8082111561243557600081816101000a81549073ffffffffffffffffffffffffffffffffffffffff0219169055506001016123ff565b5090565b9056fea165627a7a723058205614a561fb6114f3a6e2a574f53c04dbcc05dd5b94d452ec51242302217aec2d0029",
  "source": "pragma solidity ^0.5.0;\r\n\r\ncontract SpeakItOut {\r\n    struct ProfileDetails {\r\n        string firstName;\r\n        string lastName;\r\n    }\r\n\r\n    struct Blog {\r\n        string title;\r\n        string data;\r\n        // Number of users that upvoted\r\n        uint upvotes;\r\n        // User that upvoted the blog\r\n        address[] users;\r\n        address author; \r\n    }\r\n\r\n    mapping(address => ProfileDetails) public profiles;\r\n\r\n    Blog[] public blogs;\r\n    uint public count;\r\n    constructor() public{\r\n\r\n    }\r\n    event messageSentEvent(address indexed from, address indexed to, string message, bytes32 encryption);\r\n    event addContactEvent(address indexed from, address indexed to);\r\n    event acceptContactEvent(address indexed from, address indexed to);\r\n    event profileUpdateEvent(address indexed from, bytes32 name);\r\n    event blockContactEvent(address indexed from, address indexed to);\r\n    event unblockContactEvent(address indexed from, address indexed to);\r\n\r\n    enum RelationshipType {NoRelation, Requested, Connected, Blocked}\r\n\r\n    struct Member {\r\n        bytes32 publicKeyLeft;\r\n        bytes32 publicKeyRight;\r\n        bytes32 name;\r\n        bytes32 avatarUrl;\r\n        uint messageStartBlock;\r\n        bool isMember;\r\n    }\r\n\r\n    mapping (address => mapping (address => RelationshipType)) relationships;\r\n    mapping (address => Member) public members;\r\n\r\n    //Add a new Account\r\n    function addAccount(string memory firstName, string memory lastName) public{\r\n        //Check if account already exists\r\n        ProfileDetails memory profileDetails = ProfileDetails(firstName,lastName);\r\n        profiles[msg.sender] = profileDetails;\r\n        count++;\r\n    }\r\n\r\n    //Edit an Existing account\r\n    function editAccount(string memory firstName, string memory lastName) public{\r\n        //Check if account exists\r\n        ProfileDetails memory profileDetails = ProfileDetails(firstName,lastName);\r\n        profiles[msg.sender] = profileDetails;\r\n    }\r\n\r\n    function getCount() public view returns(uint){\r\n      return count;\r\n    }\r\n    function addBlog(string memory title,string memory data) public {\r\n        address[] memory users;\r\n        Blog memory blog = Blog(title,data,0,users,msg.sender);\r\n        blogs.push(blog);\r\n        \r\n    }\r\n    function getBlogCount() public view returns(uint) {\r\n        return blogs.length;\r\n    }\r\n        function addContact(address  addr) public onlyMember {\r\n        require(relationships[msg.sender][addr] == RelationshipType.NoRelation);\r\n        require(relationships[addr][msg.sender] == RelationshipType.NoRelation);\r\n\r\n        relationships[msg.sender][addr] = RelationshipType.Requested;\r\n        emit addContactEvent(msg.sender, addr);\r\n    }\r\n\r\n    function acceptContactRequest(address addr) public onlyMember {\r\n        require(relationships[addr][msg.sender] == RelationshipType.Requested);\r\n\r\n        relationships[msg.sender][addr] = RelationshipType.Connected;\r\n        relationships[addr][msg.sender] = RelationshipType.Connected;\r\n\r\n        emit acceptContactEvent(msg.sender, addr);\r\n    }\r\n\r\n    function join(bytes32 publicKeyLeft, bytes32 publicKeyRight) public {\r\n        require(members[msg.sender].isMember == false);\r\n\r\n        Member memory newMember = Member(publicKeyLeft, publicKeyRight, \"\", \"\", 0, true);\r\n        members[msg.sender] = newMember;\r\n    }\r\n\r\n    function sendMessage(address to, string memory message, bytes32 encryption) public onlyMember isValid( to) {\r\n        require(relationships[to][msg.sender] == RelationshipType.Connected);\r\n\r\n        if (members[to].messageStartBlock == 0) {\r\n            members[to].messageStartBlock = block.number;\r\n        }\r\n\r\n        emit messageSentEvent(msg.sender, to, message, encryption);\r\n    }\r\n\r\n    function blockMessagesFrom(address from) public onlyMember {\r\n        require(relationships[msg.sender][from] == RelationshipType.Connected);\r\n\r\n        relationships[msg.sender][from] = RelationshipType.Blocked;\r\n        emit blockContactEvent(msg.sender, from);\r\n    }\r\n\r\n    function unblockMessagesFrom(address from) public onlyMember  {\r\n        require(relationships[msg.sender][from] == RelationshipType.Blocked);\r\n\r\n        relationships[msg.sender][from] = RelationshipType.Connected;\r\n        emit unblockContactEvent(msg.sender, from);\r\n    }\r\n\r\n    function updateProfile(bytes32 name) public onlyMember {\r\n        members[msg.sender].name = name;\r\n        emit profileUpdateEvent(msg.sender, name);\r\n    }\r\n\r\n    modifier onlyMember() {\r\n        require(members[msg.sender].isMember == true);\r\n        _;\r\n    }\r\n\r\n    modifier isValid(address usr) {\r\n        require(members[usr].isMember == true);\r\n        _;\r\n    }\r\n\r\n    function getRelationWith(address a) public view onlyMember returns (RelationshipType) {\r\n        return relationships[msg.sender][a];\r\n    }\r\n    function deleteProfile() public onlyMember{\r\n        delete(members[msg.sender]);\r\n    }\r\n\r\n}\r\n",
  "sourcePath": "F:/Courses/Blockchain/Project/speakitout/contracts/SpeakItOut.sol",
  "compiler": {
    "name": "solc",
    "version": "0.5.0+commit.1d4f565a.Emscripten.clang"
  },
  "schemaVersion": "3.0.6",
  "updatedAt": "2019-04-14T05:23:47.717Z",
  "devdoc": {
    "methods": {}
  },
  "userdoc": {
    "methods": {}
  }
}