{
  "contractName": "SpeakItOut",
  "abi": [
    {
      "constant": true,
      "inputs": [],
      "name": "count",
      "outputs": [
        {
          "name": "",
          "type": "uint256"
        }
      ],
      "payable": false,
      "stateMutability": "view",
      "type": "function",
      "signature": "0x06661abd"
    },
    {
      "constant": true,
      "inputs": [
        {
          "name": "",
          "type": "uint256"
        }
      ],
      "name": "members",
      "outputs": [
        {
          "name": "",
          "type": "address"
        }
      ],
      "payable": false,
      "stateMutability": "view",
      "type": "function",
      "signature": "0x5daf08ca"
    },
    {
      "constant": true,
      "inputs": [
        {
          "name": "",
          "type": "uint256"
        }
      ],
      "name": "blogs",
      "outputs": [
        {
          "name": "id",
          "type": "uint256"
        },
        {
          "name": "title",
          "type": "string"
        },
        {
          "name": "data",
          "type": "string"
        },
        {
          "name": "upvotes",
          "type": "uint256"
        },
        {
          "name": "author",
          "type": "address"
        },
        {
          "name": "authorName",
          "type": "string"
        }
      ],
      "payable": false,
      "stateMutability": "view",
      "type": "function",
      "signature": "0x80f052d8"
    },
    {
      "constant": true,
      "inputs": [
        {
          "name": "",
          "type": "address"
        }
      ],
      "name": "profiles",
      "outputs": [
        {
          "name": "firstName",
          "type": "string"
        },
        {
          "name": "lastName",
          "type": "string"
        },
        {
          "name": "isExists",
          "type": "bool"
        }
      ],
      "payable": false,
      "stateMutability": "view",
      "type": "function",
      "signature": "0xbbe15627"
    },
    {
      "constant": true,
      "inputs": [],
      "name": "blogCount",
      "outputs": [
        {
          "name": "",
          "type": "uint256"
        }
      ],
      "payable": false,
      "stateMutability": "view",
      "type": "function",
      "signature": "0xe8824299"
    },
    {
      "inputs": [],
      "payable": false,
      "stateMutability": "nonpayable",
      "type": "constructor",
      "signature": "constructor"
    },
    {
      "anonymous": false,
      "inputs": [
        {
          "indexed": true,
          "name": "from",
          "type": "address"
        },
        {
          "indexed": true,
          "name": "to",
          "type": "address"
        },
        {
          "indexed": false,
          "name": "message",
          "type": "string"
        },
        {
          "indexed": false,
          "name": "encryption",
          "type": "bytes32"
        },
        {
          "indexed": false,
          "name": "msgCount",
          "type": "uint256"
        }
      ],
      "name": "messageSentEvent",
      "type": "event",
      "signature": "0x00be58ce117962b54d0a675cf9b2bd52d3918522d0419169faaec1c81b942663"
    },
    {
      "constant": false,
      "inputs": [
        {
          "name": "firstName",
          "type": "string"
        },
        {
          "name": "lastName",
          "type": "string"
        }
      ],
      "name": "addAccount",
      "outputs": [],
      "payable": false,
      "stateMutability": "nonpayable",
      "type": "function",
      "signature": "0x4479a70f"
    },
    {
      "constant": false,
      "inputs": [
        {
          "name": "firstName",
          "type": "string"
        },
        {
          "name": "lastName",
          "type": "string"
        }
      ],
      "name": "editAccount",
      "outputs": [],
      "payable": false,
      "stateMutability": "nonpayable",
      "type": "function",
      "signature": "0xb9fc63d5"
    },
    {
      "constant": true,
      "inputs": [],
      "name": "getCount",
      "outputs": [
        {
          "name": "",
          "type": "uint256"
        }
      ],
      "payable": false,
      "stateMutability": "view",
      "type": "function",
      "signature": "0xa87d942c"
    },
    {
      "constant": false,
      "inputs": [
        {
          "name": "title",
          "type": "string"
        },
        {
          "name": "data",
          "type": "string"
        }
      ],
      "name": "addBlog",
      "outputs": [],
      "payable": false,
      "stateMutability": "nonpayable",
      "type": "function",
      "signature": "0xebbca87a"
    },
    {
      "constant": true,
      "inputs": [],
      "name": "getBlogCount",
      "outputs": [
        {
          "name": "",
          "type": "uint256"
        }
      ],
      "payable": false,
      "stateMutability": "view",
      "type": "function",
      "signature": "0xc8b71c95"
    },
    {
      "constant": false,
      "inputs": [
        {
          "name": "to",
          "type": "address"
        },
        {
          "name": "message",
          "type": "string"
        },
        {
          "name": "encryption",
          "type": "bytes32"
        }
      ],
      "name": "sendMessage",
      "outputs": [],
      "payable": false,
      "stateMutability": "nonpayable",
      "type": "function",
      "signature": "0x64ee3588"
    },
    {
      "constant": false,
      "inputs": [
        {
          "name": "rec",
          "type": "address"
        }
      ],
      "name": "sendETH",
      "outputs": [],
      "payable": true,
      "stateMutability": "payable",
      "type": "function",
      "signature": "0x21b1e5f8"
    }
  ],
  "bytecode": "0x6080604052600060055534801561001557600080fd5b506117a4806100256000396000f3fe6080604052600436106100ba576000357c0100000000000000000000000000000000000000000000000000000000900463ffffffff16806306661abd146100bf57806321b1e5f8146100ea5780634479a70f1461012e5780635daf08ca1461028d57806364ee35881461030857806380f052d8146103fa578063a87d942c146105c7578063b9fc63d5146105f2578063bbe1562714610751578063c8b71c9514610892578063e8824299146108bd578063ebbca87a146108e8575b600080fd5b3480156100cb57600080fd5b506100d4610a47565b6040518082815260200191505060405180910390f35b61012c6004803603602081101561010057600080fd5b81019080803573ffffffffffffffffffffffffffffffffffffffff169060200190929190505050610a4d565b005b34801561013a57600080fd5b5061028b6004803603604081101561015157600080fd5b810190808035906020019064010000000081111561016e57600080fd5b82018360208201111561018057600080fd5b803590602001918460018302840111640100000000831117156101a257600080fd5b91908080601f016020809104026020016040519081016040528093929190818152602001838380828437600081840152601f19601f8201169050808301925050505050505091929192908035906020019064010000000081111561020557600080fd5b82018360208201111561021757600080fd5b8035906020019184600183028401116401000000008311171561023957600080fd5b91908080601f016020809104026020016040519081016040528093929190818152602001838380828437600081840152601f19601f820116905080830192505050505050509192919290505050610abc565b005b34801561029957600080fd5b506102c6600480360360208110156102b057600080fd5b8101908080359060200190929190505050610bfe565b604051808273ffffffffffffffffffffffffffffffffffffffff1673ffffffffffffffffffffffffffffffffffffffff16815260200191505060405180910390f35b34801561031457600080fd5b506103f86004803603606081101561032b57600080fd5b81019080803573ffffffffffffffffffffffffffffffffffffffff1690602001909291908035906020019064010000000081111561036857600080fd5b82018360208201111561037a57600080fd5b8035906020019184600183028401116401000000008311171561039c57600080fd5b91908080601f016020809104026020016040519081016040528093929190818152602001838380828437600081840152601f19601f82011690508083019250505050505050919291929080359060200190929190505050610c3c565b005b34801561040657600080fd5b506104336004803603602081101561041d57600080fd5b8101908080359060200190929190505050610de2565b6040518087815260200180602001806020018681526020018573ffffffffffffffffffffffffffffffffffffffff1673ffffffffffffffffffffffffffffffffffffffff16815260200180602001848103845289818151815260200191508051906020019080838360005b838110156104b957808201518184015260208101905061049e565b50505050905090810190601f1680156104e65780820380516001836020036101000a031916815260200191505b50848103835288818151815260200191508051906020019080838360005b8381101561051f578082015181840152602081019050610504565b50505050905090810190601f16801561054c5780820380516001836020036101000a031916815260200191505b50848103825285818151815260200191508051906020019080838360005b8381101561058557808201518184015260208101905061056a565b50505050905090810190601f1680156105b25780820380516001836020036101000a031916815260200191505b50995050505050505050505060405180910390f35b3480156105d357600080fd5b506105dc611015565b6040518082815260200191505060405180910390f35b3480156105fe57600080fd5b5061074f6004803603604081101561061557600080fd5b810190808035906020019064010000000081111561063257600080fd5b82018360208201111561064457600080fd5b8035906020019184600183028401116401000000008311171561066657600080fd5b91908080601f016020809104026020016040519081016040528093929190818152602001838380828437600081840152601f19601f820116905080830192505050505050509192919290803590602001906401000000008111156106c957600080fd5b8201836020820111156106db57600080fd5b803590602001918460018302840111640100000000831117156106fd57600080fd5b91908080601f016020809104026020016040519081016040528093929190818152602001838380828437600081840152601f19601f82011690508083019250505050505050919291929050505061101f565b005b34801561075d57600080fd5b506107a06004803603602081101561077457600080fd5b81019080803573ffffffffffffffffffffffffffffffffffffffff1690602001909291905050506110e9565b60405180806020018060200184151515158152602001838103835286818151815260200191508051906020019080838360005b838110156107ee5780820151818401526020810190506107d3565b50505050905090810190601f16801561081b5780820380516001836020036101000a031916815260200191505b50838103825285818151815260200191508051906020019080838360005b83811015610854578082015181840152602081019050610839565b50505050905090810190601f1680156108815780820380516001836020036101000a031916815260200191505b509550505050505060405180910390f35b34801561089e57600080fd5b506108a7611250565b6040518082815260200191505060405180910390f35b3480156108c957600080fd5b506108d261125d565b6040518082815260200191505060405180910390f35b3480156108f457600080fd5b50610a456004803603604081101561090b57600080fd5b810190808035906020019064010000000081111561092857600080fd5b82018360208201111561093a57600080fd5b8035906020019184600183028401116401000000008311171561095c57600080fd5b91908080601f016020809104026020016040519081016040528093929190818152602001838380828437600081840152601f19601f820116905080830192505050505050509192919290803590602001906401000000008111156109bf57600080fd5b8201836020820111156109d157600080fd5b803590602001918460018302840111640100000000831117156109f357600080fd5b91908080601f016020809104026020016040519081016040528093929190818152602001838380828437600081840152601f19601f820116905080830192505050505050509192919290505050611263565b005b60045481565b343373ffffffffffffffffffffffffffffffffffffffff1631111515610a7257600080fd5b8073ffffffffffffffffffffffffffffffffffffffff166108fc349081150290604051600060405180830381858888f19350505050158015610ab8573d6000803e3d6000fd5b5050565b610ac461158e565b606060405190810160405280848152602001838152602001600115158152509050806000803373ffffffffffffffffffffffffffffffffffffffff1673ffffffffffffffffffffffffffffffffffffffff1681526020019081526020016000206000820151816000019080519060200190610b409291906115b2565b506020820151816001019080519060200190610b5d9291906115b2565b5060408201518160020160006101000a81548160ff02191690831515021790555090505060013390806001815401808255809150509060018203906000526020600020016000909192909190916101000a81548173ffffffffffffffffffffffffffffffffffffffff021916908373ffffffffffffffffffffffffffffffffffffffff16021790555050600460008154809291906001019190505550505050565b600181815481101515610c0d57fe5b906000526020600020016000915054906101000a900473ffffffffffffffffffffffffffffffffffffffff1681565b6000803373ffffffffffffffffffffffffffffffffffffffff1673ffffffffffffffffffffffffffffffffffffffff16815260200190815260200160002060020160009054906101000a900460ff161515610c9657600080fd5b6000808473ffffffffffffffffffffffffffffffffffffffff1673ffffffffffffffffffffffffffffffffffffffff16815260200190815260200160002060020160009054906101000a900460ff161515610cf057600080fd5b6005600081548092919060010191905055508273ffffffffffffffffffffffffffffffffffffffff163373ffffffffffffffffffffffffffffffffffffffff167ebe58ce117962b54d0a675cf9b2bd52d3918522d0419169faaec1c81b94266384846005546040518080602001848152602001838152602001828103825285818151815260200191508051906020019080838360005b83811015610da1578082015181840152602081019050610d86565b50505050905090810190601f168015610dce5780820380516001836020036101000a031916815260200191505b5094505050505060405180910390a3505050565b600281815481101515610df157fe5b9060005260206000209060070201600091509050806000015490806001018054600181600116156101000203166002900480601f016020809104026020016040519081016040528092919081815260200182805460018160011615610100020316600290048015610ea35780601f10610e7857610100808354040283529160200191610ea3565b820191906000526020600020905b815481529060010190602001808311610e8657829003601f168201915b505050505090806002018054600181600116156101000203166002900480601f016020809104026020016040519081016040528092919081815260200182805460018160011615610100020316600290048015610f415780601f10610f1657610100808354040283529160200191610f41565b820191906000526020600020905b815481529060010190602001808311610f2457829003601f168201915b5050505050908060030154908060050160009054906101000a900473ffffffffffffffffffffffffffffffffffffffff1690806006018054600181600116156101000203166002900480601f01602080910402602001604051908101604052809291908181526020018280546001816001161561010002031660029004801561100b5780601f10610fe05761010080835404028352916020019161100b565b820191906000526020600020905b815481529060010190602001808311610fee57829003601f168201915b5050505050905086565b6000600454905090565b61102761158e565b606060405190810160405280848152602001838152602001600115158152509050806000803373ffffffffffffffffffffffffffffffffffffffff1673ffffffffffffffffffffffffffffffffffffffff16815260200190815260200160002060008201518160000190805190602001906110a39291906115b2565b5060208201518160010190805190602001906110c09291906115b2565b5060408201518160020160006101000a81548160ff021916908315150217905550905050505050565b6000602052806000526040600020600091509050806000018054600181600116156101000203166002900480601f0160208091040260200160405190810160405280929190818152602001828054600181600116156101000203166002900480156111955780601f1061116a57610100808354040283529160200191611195565b820191906000526020600020905b81548152906001019060200180831161117857829003601f168201915b505050505090806001018054600181600116156101000203166002900480601f0160208091040260200160405190810160405280929190818152602001828054600181600116156101000203166002900480156112335780601f1061120857610100808354040283529160200191611233565b820191906000526020600020905b81548152906001019060200180831161121657829003601f168201915b5050505050908060020160009054906101000a900460ff16905083565b6000600280549050905090565b60035481565b606061126d61158e565b6000803373ffffffffffffffffffffffffffffffffffffffff1673ffffffffffffffffffffffffffffffffffffffff16815260200190815260200160002060606040519081016040529081600082018054600181600116156101000203166002900480601f0160208091040260200160405190810160405280929190818152602001828054600181600116156101000203166002900480156113505780601f1061132557610100808354040283529160200191611350565b820191906000526020600020905b81548152906001019060200180831161133357829003601f168201915b50505050508152602001600182018054600181600116156101000203166002900480601f0160208091040260200160405190810160405280929190818152602001828054600181600116156101000203166002900480156113f25780601f106113c7576101008083540402835291602001916113f2565b820191906000526020600020905b8154815290600101906020018083116113d557829003601f168201915b505050505081526020016002820160009054906101000a900460ff1615151515815250509050606081600001519050611429611632565b60e06040519081016040528060036000815480929190600101919050558152602001878152602001868152602001600081526020018581526020013373ffffffffffffffffffffffffffffffffffffffff168152602001838152509050600281908060018154018082558091505090600182039060005260206000209060070201600090919290919091506000820151816000015560208201518160010190805190602001906114da9291906115b2565b5060408201518160020190805190602001906114f79291906115b2565b5060608201518160030155608082015181600401908051906020019061151e929190611686565b5060a08201518160050160006101000a81548173ffffffffffffffffffffffffffffffffffffffff021916908373ffffffffffffffffffffffffffffffffffffffff16021790555060c08201518160060190805190602001906115829291906115b2565b50505050505050505050565b60606040519081016040528060608152602001606081526020016000151581525090565b828054600181600116156101000203166002900490600052602060002090601f016020900481019282601f106115f357805160ff1916838001178555611621565b82800160010185558215611621579182015b82811115611620578251825591602001919060010190611605565b5b50905061162e9190611710565b5090565b60e0604051908101604052806000815260200160608152602001606081526020016000815260200160608152602001600073ffffffffffffffffffffffffffffffffffffffff168152602001606081525090565b8280548282559060005260206000209081019282156116ff579160200282015b828111156116fe5782518260006101000a81548173ffffffffffffffffffffffffffffffffffffffff021916908373ffffffffffffffffffffffffffffffffffffffff160217905550916020019190600101906116a6565b5b50905061170c9190611735565b5090565b61173291905b8082111561172e576000816000905550600101611716565b5090565b90565b61177591905b8082111561177157600081816101000a81549073ffffffffffffffffffffffffffffffffffffffff02191690555060010161173b565b5090565b9056fea165627a7a723058209fa894f0a67a34766b9dd509c16701bdd581d36eb1ac1fc27dc5924bc11e7b910029",
  "source": "pragma solidity ^0.5.0;\r\n\r\ncontract SpeakItOut {\r\n        struct ProfileDetails {\r\n        string firstName;\r\n        string lastName;\r\n        bool isExists;\r\n    }\r\n\r\n\r\n    struct Blog {\r\n        uint id;\r\n        string title;\r\n        string data;\r\n        // Number of users that upvoted\r\n        uint upvotes;\r\n        // User that upvoted the blog\r\n        address[] users;\r\n        address author;\r\n        string authorName; \r\n    }\r\n\r\n    mapping(address => ProfileDetails) public profiles;\r\n    address[] public members; \r\n\r\n    Blog[] public blogs;\r\n    uint public blogCount;\r\n    uint public count;\r\n    constructor() public{\r\n\r\n    }\r\n\r\n       uint msgCount = 0;\r\n    event messageSentEvent(address indexed from, address indexed to, string message, bytes32 encryption,uint msgCount);\r\n\r\n\r\n\r\n\r\n    //Add a new Account\r\n    function addAccount(string memory firstName, string memory lastName) public{\r\n        //Check if account already exists\r\n        ProfileDetails memory profileDetails = ProfileDetails(firstName,lastName,true);\r\n        profiles[msg.sender] = profileDetails;\r\n        members.push(msg.sender);\r\n        count++;\r\n    }\r\n\r\n    //Edit an Existing account\r\n    function editAccount(string memory firstName, string memory lastName) public{\r\n        //Check if account exists\r\n        ProfileDetails memory profileDetails = ProfileDetails(firstName,lastName,true);\r\n        profiles[msg.sender] = profileDetails;\r\n    }\r\n\r\n    function getCount() public view returns(uint){\r\n      return count;\r\n    }\r\n    function addBlog(string memory title,string memory data) public {\r\n        address[] memory users;\r\n        ProfileDetails memory profile = profiles[msg.sender];\r\n        string memory author = profile.firstName;\r\n        Blog memory blog = Blog(blogCount++,title,data,0,users,msg.sender,author);\r\n        blogs.push(blog);\r\n        \r\n    }\r\n    function getBlogCount() public view returns(uint) {\r\n        return blogs.length;\r\n    }\r\n    // function to send messages\r\n    function sendMessage(address to, string memory message, bytes32 encryption) public {\r\n        require(profiles[msg.sender].isExists);\r\n        require(profiles[to].isExists);\r\n\r\n        msgCount++;\r\n        emit messageSentEvent(msg.sender, to, message, encryption, msgCount);\r\n    }\r\n\r\n    function sendETH(address payable rec) payable public {\r\n        require(msg.sender.balance  > msg.value);\r\n        rec.transfer(msg.value);\r\n\r\n    }\r\n\r\n\r\n}\r\n",
  "sourcePath": "F:/Courses/Blockchain/Project/speakitout/contracts/SpeakItOut.sol",
  "compiler": {
    "name": "solc",
    "version": "0.5.0+commit.1d4f565a.Emscripten.clang"
  },
  "schemaVersion": "3.0.6",
  "updatedAt": "2019-04-15T02:48:04.241Z",
  "devdoc": {
    "methods": {}
  },
  "userdoc": {
    "methods": {}
  }
}